:020000041000EA
:1000000000B5324B212058609868022188439860DF
:10001000D860186158612E4B002199600221596106
:100020000121F02299502B49196001219960352056
:1000300000F044F80222904214D00621196600F024
:1000400034F8196E01211966002018661A6600F04E
:100050002CF8196E196E196E052000F02FF8012189
:100060000842F9D1002199601B49196000215960AB
:100070001A491B48016001219960EB211966A021F2
:10008000196600F012F800219960164914480160C1
:100090000121996001BC002800D000471248134993
:1000A000086003C880F30888084703B5996A0420EC
:1000B0000142FBD001200142F8D103BD02B5186610
:1000C0001866FFF7F2FF186E186E02BD00000240BE
:1000D000000000180000070000035F00212200005C
:1000E000F4000018222000A00001001008ED00E03C
:1000F00000000000000000000000000074B24E7A12
:1001000000200420F7010010C3010010C5010010F9
:10011000C1010010C1010010C1010010C101001097
:10012000C1010010C1010010C1010010C701001081
:10013000C1010010C1010010C9010010CB01001065
:10014000CD010010CD010010CD010010CD01001037
:10015000CD010010CD010010CD010010CD01001027
:10016000CD010010CD010010CD010010CD01001017
:10017000CD010010CD010010CD010010CD01001007
:10018000CD010010CD010010CD010010CD010010F7
:10019000CD010010CD010010CD010010CD010010E7
:1001A000CD010010CD010010CD010010CD010010D7
:1001B000CD010010CD010010CD010010CD010010C7
:1001C00000BE00BE00BE00BE00BE00BE00F04BF888
:1001D000103800BEF2EB8871A4420310C442031031
:1001E0003402001090A31AE700202149086006C8D5
:1001F00081F3088810471F48006800282FD10DA4FC
:100200000ECC002902D000F012F8F9E71A491B4A77
:10021000002000E001C19142FCD1194988471949E9
:1002200088471949884700BEFDE701C901C29A42C3
:10023000FBD37047C4420310C0000020481A0020BE
:100240004C5C031000000420000004204C5C0310F0
:1002500000100420001004200000000070470B482C
:1002600017F05AFF0047EFF30580C0B27047000057
:1002700008ED00E0000000D0481A002018570020C8
:10028000C9690110DD120010856901105756000080
:1002900006005250ABB36053F0B602100600525045
:1002A000861C030200B70210060052505422A29D81
:1002B0000CB7021005005250DE65F4684C5C031068
:1002C000F8B5C04606480749091A8B10C90FC91866
:1002D00010B5491003D0044B002B00D0984710BD37
:1002E000481A0020481A002000000000054B10B5F5
:1002F000002B03D00449054800E000BFFFF7E2FFF0
:1003000010BDC0460000000018530020F874021011
:1003100010B5EFF3108472B68021FF20490140032D
:1003200027F0BAF884F3108810BD000010B5EFF381
:10033000108472B680214901024827F0ADF884F399
:10034000108810BD00F01F0010B50100EFF31084FD
:1003500072B68022FF205200400327F07DF884F31C
:10036000108810BD002303E0034A9A5CC254013395
:10037000FF2BF9DD7047C04600E01F1010B5041ECA
:100380000ED022F049FA03008208500080185A1E4D
:10039000002B06D0A35C3D2B03D101381300F6E7F8
:1003A000002010BD5A280BD82B2811D32B38C3B2EC
:1003B0002F2B03D89800084B1B589F4600200AE0BB
:1003C0006138C0B2192801D8012004E0002002E001
:1003D000002000E001207047F8740210F0B5C64616
:1003E00000B504000D001600002857D0002957D092
:1003F00022F012FA070080462000FFF7BFFFB0424C
:1004000050D803231E003E403B424FD137004745A2
:1004100006D2E05DFFF7C6FF002844D00137F6E7BB
:10042000310005E09B011CE09B0126E0043603310E
:10043000464531D2A35D2B3B1D489B001B589B01B9
:10044000A21952782B3A920012581343B21CA718E3
:10045000A25C3D2AE6D09B012B3A15489200125827
:100460001343F21CA0188446A25C3D2ADCD09B01F9
:100470002B3A0F489200125813431A146A543A78D0
:100480003D2A02D01A12481C2A54624612783D2A8C
:10049000CCD08A1CAB54C9E7012004E0002002E064
:1004A000002000E0002080BCB846F0BD0020FAE744
:1004B000E87E0210F0B583B00026124B1A8850086F
:1004C00014004440D1084C4011094C400121214006
:1004D0006C462180DC889D88EF0364083C43DC8007
:1004E0005C88E7036D083D439D80D2036408144394
:1004F0005C80C903084318800136072EDDDD000A41
:1005000003B0F0BD0853002030B585B0050002A847
:100510001BF0D4FE1D4C082221002800FFF75EFFCF
:1005200021886288A388E4881948009419F0FAF8B1
:100530000020002103290DDC421C02AC235CA25CDC
:1005400002301B021343114A4D00AC5A6340AB52B8
:100550000131EFE70D48018842888388C4880D483F
:10056000009419F0DFF80023032B06DC074A59003A
:10057000885A094A88520133F6E7002402E0FFF75F
:1005800099FF0134072CFADD05B030BDC0550020BD
:10059000B8750210DC7502100853002070B584B0E5
:1005A00003AC03232380104D00260096013B22005C
:1005B0004821280021F098F80723237078336370CE
:1005C00000967D3B22004821280021F08DF804236D
:1005D00023707C33637000967E3B22004821280004
:1005E00021F082F804B070BD6410002010B584B012
:1005F0000E4B1B786A4613730D4C0123009303AA1C
:100600004821200021F070F800230093013303AA51
:100610004821200021F074F86B461B7B5BB2002B55
:1006200002DB002004B010BD0120FBE704760210BD
:100630006410002010B584B00B4B1B786A4613730E
:100640000A4C0123009303AA4821200021F04CF812
:1006500000230093013303AA4821200021F050F821
:100660006B46187B04B010BDF8CB0210641000205C
:1006700010B5002805D0FFF791FF02E0642015F0C7
:1006800047FDFFF7B3FF0028F8D0FFF7D3FF10BDF9
:10069000F0B5C64600B584B003AC00252570112323
:1006A00063701133A3701A4E00951F3B2200402146
:1006B000300021F019F80A2015F02AFD332398465E
:1006C00063704427A7700095303B22004021300022
:1006D00021F00AF80A2015F01BFD6570A570009541
:1006E000012322004021300020F0FEFF009502236C
:1006F00022004021300021F003F843462370677048
:10070000044818F0DDFF002004B080BCB846F0BDFE
:100710006410002008760210F0B585B0050003AC27
:10072000642323701D4E00270097633B2200402165
:10073000300020F0D9FF0097042322004021300030
:1007400020F0DEFF22786378A07815490090280019
:1007500017F0A6FCE378002B07D06378372B0AD874
:10076000023363702378013323700E48290018F098
:10077000D9FF05B0F0BD382B08D0392BF5D103AB2C
:1007800031225A701A7802321A70EEE703AB302227
:100790005A701A7802321A70E7E7C04664100020D7
:1007A0001C7602102C7602100300020930320A7007
:1007B0000F2018403030487070470000F0B585B009
:1007C000040003AD65232B70214E00270097643B86
:1007D0002A004021300020F087FF009703232A00E1
:1007E0004021300020F08CFF29786A78AB781948D6
:1007F00018F098FF6B78082B1ED801336B7003AD8F
:100800006878611DFFF7D0FFA87821000831FFF755
:10081000CBFF32232370023B63702878A11CFFF7C3
:10082000C3FF2D232371E3710023A3720A48210023
:1008300018F078FF05B0F0BD092B05D00F2BDED9DD
:10084000013303AA5370DAE703AB10225A70D6E7DC
:1008500064100020487602105C76021010B584B057
:1008600003AC702323706D3B03406370124818F093
:1008700059FF6378022B1BD007D8002B0BD0012B1C
:100880000CD10E4818F01CFF08E0032B06D10C48D1
:1008900018F016FF02E00B4818F012FF0A48002378
:1008A0000093023303AA402120F01EFF04B010BDC4
:1008B000064818F005FFF1E778760210AC760210D2
:1008C000D47602109076021064100020C0760210D8
:1008D00000B585B0FF2814D93C2117F071FC03AB9B
:1008E00067221A70C1B259700A4818F01BFF0A48F3
:1008F00000230093023303AA402120F0F5FE05B047
:1009000000BD03AB66221A70C1B25970034818F0DB
:1009100009FFECE7E0760210641000200077021077
:1009200010B50F2014F092FAD024240680231B0265
:1009300063626361192014F089FA80239B04636267
:10094000162014F083FA8023DB0363620E2014F078
:100950007DFA8023DB01A362002201210E2014F026
:1009600095F9082014F072FA80235B0063620C484A
:100970000C4920F08DFE0321042014F06FF90321AF
:10098000052014F06BF900220121042014F07EF9F7
:1009900000220121052014F079F91BF065FD10BD3E
:1009A0006410002050C30000F0B5DE4657464E46A6
:1009B0004546E0B5CB4CA544CB49CC4800221EF0BF
:1009C000A3FB00280FD1CA49CA4801221EF0CAFB66
:1009D00000280CD1012400239B469A460026994604
:1009E0000393002713E0C44818F06AFEEBE7C348FE
:1009F00018F066FEEEE7C24818F062FE0024002FF1
:100A00003DD1002C00D1F2E0002C00D1F3E0B94A36
:100A1000802162A81FF0CAF80028ECD00136F6B297
:100A2000B84962A821F05CFF011EE8D05AA821F065
:100A3000EBFEB449002021F053FF011E0DD048AD5C
:100A4000280021F0E1FE280021F0E6FE831EEA5C8A
:100A50000D2A08D80021E95401275AAB1B78232B13
:100A6000CDD10027CBE7013848AB1B5C0D2B04D858
:100A700048AB00221A540127EFE70127EDE7A2480F
:100A80005AAA310018F04EFE0025A0483DE0A048CB
:100A900048A921F075FE002804D19E4B05221A704A
:100AA000002399469C4848A921F06AFE002804D1F9
:100AB000984B08221A7001239946984848A921F0BA
:100AC0005FFE002804D1934B01221A70022399463D
:100AD000934848A921F054FE002800D083E08D4BB4
:100AE00007221A7003970323994607E08D4818F0F0
:100AF000E7FD8D4848A921F087FE039501358B4B12
:100B0000AA00985803782D2B6FD05AA921F038FEEF
:100B10000028F3D1092D62D8AB00854AD3589F46EF
:100B2000844818F0CDFD844848A921F06DFE039754
:100B3000E4E7824818F0C4FD814848A921F064FE2A
:100B40000397DBE77F4818F0BBFD7F4B7F49984652
:100B50001A0048A821F09AFD434619887C4818F0ED
:100B6000E1FD0397CAE77B4818F0AAFD7A4A7B4962
:100B700048A821F08BFD01239C46E244BEE778485B
:100B800018F09EFD774A754948A821F07FFD0123A2
:100B90009C46E244B2E7744818F092FD734A6F49EC
:100BA00048A821F073FD01239C46E244A6E7704863
:100BB00018F086FD6F4A704948A821F067FD0123AF
:100BC0009C46E3449AE76D4818F07AFD6A4904AA06
:100BD00048A821F05BFD04A8FFF796FC8EE7684863
:100BE00018F06EFD8AE7039788E700270CE7654851
:100BF00018F066FD08E73F481EF08DFF002812D16F
:100C00005346032B13D05B46012B2DD0039B002BA7
:100C100000D0FCE083239B009D44F0BCBB46B24661
:100C2000A946A046F0BD584818F04AFDE8E75748E5
:100C300018F046FD08A8652303704C4B1968303145
:100C4000C9B24170474B1A788270434B1B78C3700E
:100C50004F4818F067FD4F4800230093043308AA5B
:100C6000402120F041FDCEE74B4818F029FD08ABAC
:100C700064221A7000221A713E4B1B78312B00D16E
:100C80008EE0322B00D190E03A490B781B01012213
:100C90008A560F2002401A43D2B208AB5A70CD7860
:100CA0002D01AC4604254D57054066463543EDB24F
:100CB000AC469D708D792D0107268E573040054337
:100CC000EDB2DD701B79354801930095634618F04D
:100CD00029FD304800230093053308AA402120F065
:100CE00003FD93E7F4FDFFFFF8CB0210A81D0020E1
:100CF00044770210481B0020307702105077021012
:100D00006C7702108C760210887702102077021020
:100D1000A077021011570020A8770210B4770210B4
:100D2000B8770210C0770210AC540020288002105F
:100D3000447A0210DC77021074540020FC77021011
:100D40008854002014780210460900202C780210E4
:100D500030780210487802105C5400205478021059
:100D600058780210605400206478021070540020FB
:100D700070780210645400207C7802108078021091
:100D800094780210AC780210CC780210E07802104F
:100D9000FC78021064100020107902102C790210E7
:100DA000744A5278322A00D86BE708AA01211171DF
:100DB000312B0FD06F4B5B78302B16D0312B1AD0E4
:100DC000322B1ED0332B00D05EE76A4B31225A7093
:100DD0001A7059E7674B5B78312B00D854E7023B18
:100DE000644A5370302313704EE7624B38225A70B6
:100DF000083A1A7048E75F4B39225A70093A1A705C
:100E000042E75C4B30225A7001321A703CE7FFF720
:100E10007FFA594818F054FC250004E0FFF74AFB1C
:100E200008AB58550135FF2DF8DD08AD00272F70B0
:100E300001236B704A46AA70EB70504B98461E68AF
:100E4000300021F0E9FC0130C2B22A7131001D20CE
:100E500002AB9C46604421F00DFD6979AA794848AF
:100E600018F060FC2E79731D321DAF54B21D9346ED
:100E70000222EA5443465B689A46180021F0CCFCF3
:100E8000F31D99460130C2B25B46EA542B004B4435
:100E90001800514621F0EEFC4B46E95C0836AA5D8D
:100EA000384818F03FFC5B46EE5C4E44731EEF542E
:100EB000731C99460323AB5543469B689B46180019
:100EC00021F0AAFCB31C98460130C2B24B46EA544A
:100ED0002B0043441800594621F0CCFC4346E95C02
:100EE0000336AA5D284818F01DFC4B46EB5C4344D2
:100EF0005A1EAF545A1C0421E954991C0220A854CC
:100F0000224E32880333100A6854D2B2EA54695C24
:100F10001F4818F007FC3088FFF7DAFC69791D4894
:100F200018F000FC1C48FFF7EFFA00E00134FF2C3A
:100F30000EDCFFF7BFFA08AA135D43401355052CDA
:100F4000F4D15279154B0100180018F0EBFBEDE7D6
:100F500008A8FFF7F9F9124818F0B2FB08AC002313
:100F600063712000FFF7FEF961790E4818F0DAFB93
:100F700050E6C046645400204479021030530020EB
:100F800058790210707902109079021046090020F9
:100F9000A8790210C479021038090020E079021003
:100FA000047A0210247A021070B5C0B06846FFF7C8
:100FB000D9F96B4659795D4818F0B4FB5C48FFF7E6
:100FC000A3FA002400E00134FF2C0FDCFFF772FAD3
:100FD0006B461B5D43406A461355052CF3D152798D
:100FE000544B0100180018F09DFBECE7002500248D
:100FF0000DE0032B25D1504B07221A7002E04E4B17
:1010000005221A7001350334042D00DD8BE06B4698
:101010001B5D002B21D1631C6A46D35C012B17D1C9
:10102000A31CD35C022B08D0E3D8002BE7D0012B04
:1010300007D1414B08221A70E4E73F4B01221A7096
:10104000E0E73E4818F03CFB3B4B05221A70D9E71D
:101050003B4818F035FBFF2066E0012B0ED0022B39
:1010600021D0032B34D0042B47D0FF2C01DC042BE0
:10107000CAD9344818F024FBFF2055E0631C6A46A7
:10108000D65C112E0AD102342F4B18682100694416
:10109000320018F091F934190135B5E72B4818F0F2
:1010A0000FFBFF2040E0631C6A46D65C112E0AD17C
:1010B0000234254B586821006944320018F07CF94D
:1010C00034190135A0E7224818F0FAFAFF202BE086
:1010D000631C6A46D65C212E0AD102341A4B9868EA
:1010E00021006944320018F067F9341901358BE7A3
:1010F000184818F0E5FAFF2016E0631C6A46D35C36
:10110000022B0CD1A31CE21C6946CB5C895C043425
:101110001B02114A13800B431380013574E70F48FB
:1011200018F0CEFA70E7002040B070BD6C7A021063
:1011300038090020907A021011570020B87A021066
:10114000C87A0210507B021030530020E07A02105F
:10115000F87A0210187B021046090020307B02103A
:1011600030B59BB01B491C4800221DF0CDFF002864
:1011700020D11A491A480A221DF0F4FF00281DD177
:101180001849174819AB0F221EF0B7FA0025164967
:10119000134801221DF0E6FF002815D1104C220053
:1011A000642168461EF002FD20001EF0B4FC2800F9
:1011B0001BB030BD0D4818F083FADAE70C4818F080
:1011C0007FFA01256D42E2E70A4818F079FA012515
:1011D0006D42ECE7F8CB0210A81D00208C7B0210BA
:1011E000481B0020A07B0210D07B0210707B0210F5
:1011F000B47B0210DC7B021070B5F6B004000E0068
:101200000A22010002A821F035FB02AD0023AB72D7
:101210005F332B71EB711F492A0025A816F040FFA0
:101220002F232B71EB711C49019623000B33009384
:101230002B00220005A816F033FF2EA925A81EF0CA
:1012400081FC002818D000241448322225A91DF062
:1012500089FF002819D1002C10D005A821F0DCFA54
:1012600002000E4C2DAB05A920001EF046FA20000E
:101270001EF051FC76B070BD0124E5E7084907482F
:101280002DAB33221EF039FAE7E7064825A918F0FE
:1012900049FAEFE7047C02101C7C0210481B002076
:1012A000548002102C7C021010B50400FFF786FA5F
:1012B0005423A37220000B30FFF72EFA10BD10B597
:1012C000642014F025FF00F091FC0028F8D1D02311
:1012D0001B06802212029A6110BD000070B588B012
:1012E00000260196FFF71CFBD0252D0680239B04CA
:1012F0006B618B4CE3681E7018F020FA894814F07B
:1013000007FF894818F0DCF9884A8949894818F0AC
:1013100009FAFFF7BDF980235B006B618023DB03D3
:101320006B61FFF73BF9844B2360844B6360844B14
:10133000A360E6606B685B046DD4824818F0C0F966
:10134000FEF7F4FFFFF730FB7F4818F0B9F9744C53
:1013500021687E4818F0E6F961687D4818F0E2F9E6
:10136000A1687C4818F0DEF97B4B19887B4818F09F
:10137000D9F9FFF7F5FE0020FFF77AF9019002A8EE
:10138000FFF792FF019902A8FFF736FF744818F0A3
:1013900097F90199734818F0C5F9734802A918F034
:1013A000C1F9724818F0BEF9D0231B068022D2037F
:1013B0005A61642014F0ACFE6D4B19786D48220020
:1013C00000F064FB00282CDB6B4818F079F9D0237F
:1013D0001B06802292045A61684818F0A3F900F0B5
:1013E00063FB002400F065FB002825D1FA20800073
:1013F00000F080FB01342E2018F00AF91E2CF1DDDC
:101400005F4818F05DF9D0231B06802292049A6190
:10141000FFF755FFE5E75B4818F052F9FFF7C4FD09
:1014200092E7594818F04CF9D0231B068022920409
:101430009A61FFF744FFFEE7544818F041F946E08F
:10144000514818F03DF951E0514B195D514818F0E1
:1014500069F90134504B1B68A342F5DC0A2018F0EF
:10146000D7F84B4C2078FFF7F9F92378002B51D0AF
:10147000D0231B06802292045A61D02424068025A2
:10148000AD04A561FFF71BFF642014F041FE80232B
:101490005B006361414814F03BFE6561404818F011
:1014A0000FF90120FFF7E4F8019002A8FFF7FCFE16
:1014B000019902A8FFF7A0FE294818F001F9019947
:1014C000284818F02FF9284802A918F02BF901999B
:1014D00034480A0018F026F90222042101A800F07D
:1014E00059FB0028ACDB244818F0EAF82E4800F03D
:1014F00001FB041EC1D12D4A2548F22100F05CFBFE
:10150000011E254B1860B8DB284B1A78284818F0C4
:1015100009F99FE7D0231B06802292049A61ACE769
:1015200030530020881300004C7C0210687C0210AD
:10153000747C0210807C0210AC5400207454002093
:1015400088540020907C0210DC7C0210E47C0210A5
:10155000F87C0210147D021046090020287D02103C
:10156000387D0210507D0210687D02107C7D0210D3
:101570001157002088800210A47D0210B07D021057
:10158000CC7D0210C07C0210987D0210DC7D021020
:1015900058530020507E02104C540020307500003B
:1015A000587E0210F47D0210F82A00001357002024
:1015B000207E021010B5024825F066FF10BDC0461F
:1015C000F00B00200120704710B50400FFF7FAFF70
:1015D000A04207D3A00000190301C018C000024BAD
:1015E000C01810BD0020FCE748090020012070470A
:1015F00010B50400FFF7E6FFA04203D30248A401A0
:10160000001910BD0020FCE7F00B0020014B012267
:101610001A7070470757002070470000014B186090
:101620007047C046A4380020014B98707047C046F0
:10163000700C0020024B421E904118737047C04648
:10164000700C002010B5044B1B78002B00D110BD8E
:1016500000F06EFDFBE7C0460557002000B583B0E3
:10166000084B1B78002B0AD100236A461370537075
:1016700001930021684601F02DF803B000BD00F091
:10168000A9FDF1E70557002070B50400084B1B7851
:10169000002B0AD1074D68686168627817F08CFEEC
:1016A00063786B7023782B7070BD00F0D3FCF1E78A
:1016B00005570020300C002010B5044B1B78002B80
:1016C00000D110BD00F000FCFBE7C046055700202C
:1016D00010B50400084B1B78002B07D10523E356F7
:1016E000013306D0002001F0F3F810BD00F0B0FB8C
:1016F000F4E700F0B3FFF8E70557002010B5044BFE
:101700001B78002B00D110BD00F042FBFBE7C04668
:101710000557002010B5044B1B78002B00D110BDDD
:1017200000F0E4FAFBE7C04605570020F0B5DE46BE
:1017300057464E464546E0B593B08046994B1D68E6
:10174000002D2DD0012303702B689A466B689946B3
:10175000AF68ED68944B1C68002C5BD000239B465F
:1017600043465A461A702668A3680193636800933B
:10177000E568342302AA13778C4B0A9309A80EF06C
:10178000A1FA062302AA13775B460A9309A80EF072
:1017900099FA002E32D000234246D361002411E092
:1017A0002F00A946AA46D5E760008149301805AA4E
:1017B00020F06CFF4346DB691B02059A1343424647
:1017C000D3610134032CEFDD09A8072303704346DE
:1017D000DB6943600EF076FA019C5346002B29D05A
:1017E0000026072E18DC70007249504403AA20F02E
:1017F0004DFF039A05AB9A550136F2E76E4B9B6895
:10180000984702F0E9FE6D49002002F0EBFE4346E6
:10181000D861D9E70094E0E709AE0223337005AB45
:101820000A9330000EF04EFA4346581C0A990822DB
:1018300002F0E3FE4B46002B1BD00026072E0ADCED
:1018400070005C49484403AA20F020FF039A05ABCE
:101850009A550136F2E709AE0323337005AB0A93BC
:1018600030000EF02FFA0A9908224046093002F0A3
:10187000C4FE002F1CD0002609E070004D49381826
:1018800003AA20F003FF039A05AB9A5501360F2EE9
:10189000F3DD082302AA137705AF0A9709A80EF013
:1018A00011FA092302AA13770A9709A80EF00AFA77
:1018B000002C14D0002709E078003E49201803AA24
:1018C00020F0E4FE039A05ABDA5501370F2FF3DD64
:1018D00009A80F23037005AB43600EF0F3F9009BDA
:1018E000002B25D000240BE060003249009B9C4671
:1018F000604403AA20F0CAFE039A05AB1A550134CE
:101900000F2CF1DD0C2302AA137705AC0A9409A869
:101910000EF0D8F90D2302AA13770A9409A80EF045
:10192000D1F90E2302AA13770A9409A80EF0CAF976
:10193000002D27D0002614E0B4001E4F281903AA5A
:10194000390020F0A3FEA01C281804AA390020F0BA
:101950009DFE039B1B02049A1343720005A98B5240
:101960000136052EE8DD232302AA137705AC0A947D
:1019700009A80EF0A7F9242302AA13770A9409A84C
:101980000EF0A0F90E4B1B78002B06D113B0F0BC63
:10199000BB46B246A946A046F0BD404600F066F9F7
:1019A000F4E7C0468835002028200020000400010C
:1019B000AC800210B4800210380C0020FFFFFF0141
:1019C0000557002010B5054B1B78002B02D112F0F3
:1019D00089FE10BD00F034F9F9E7C0460557002034
:1019E00070B582B004000E0012F046FE12F05EFFE9
:1019F00021680823E3560422A2561F488446614406
:101A00000800411E8841C1B21C4801256D42019564
:101A10000C2565570095050012F0D0FF1022A25644
:101A20008C3DCC23EA541423E3562B701823E35641
:101A30002B751C22A2562823EA5413F05DF842208D
:101A400011F043F8122810D10D490E700D4800F026
:101A50006BFD00280CD1143001F068F80A49002011
:101A600001F074F8002002B070BD01204042FAE796
:101A700001204042F7E7C0460040FCBFAC370020E1
:101A8000700C0020380C0020800C002010B5044B96
:101A900000241C60034B1A60FFF7A2FF10BDC04674
:101AA000282000208835002010B500F0D7FD002048
:101AB00010BD10B500F0DAFD01384342584110BDA9
:101AC00010B582B001F0ACF801A812F0B9FD084BD6
:101AD0001B78012B06D0012401A812F0B6FD2000CE
:101AE00002B010BD024B00221A700024F4E7C04679
:101AF00007570020F0B583B0070014F0A3FB0400E3
:101B00000D1E2DDB01900E00FA22920000233800FA
:101B1000002117F0B3FA24184D41AE4203D805D185
:101B2000019BA34202D901246442E517002D1DDB6D
:101B30002600FFF7BEFF431E9841C4B2FFF7C0FF67
:101B4000104B1B78002B17D1FFF7B3FF844216D13F
:101B50003000290014F0E6FA0028EFD001200CE054
:101B6000094B0A4A0A483F2114F010FF064B074A66
:101B700007483F2114F00AFF002003B0F0BD002009
:101B8000FBE7C046300C0020B88002101C81021018
:101B9000D480021000B583B06B461A705970019062
:101BA0000021684600F096FD002801D103B000BD79
:101BB00001204042FAE7000070B50B4B1B78137010
:101BC000002B0ED0084B5B780C008B4200D81C0019
:101BD000054D6968220017F0EFFB00232B702000F1
:101BE00070BD01246442FAE7300C002010B512F0F9
:101BF0003BFD002801D0012010BD0020FCE70000C3
:101C0000F8B507000E000024002506E00A2017F0B2
:101C1000FFFC002505E00134E4B2B4420AD2002DF5
:101C2000F4D1395D054817F07DFD631C1B07F2D127
:101C30000125F0E70A2017F0EBFCF8BD3481021013
:101C400010B50C00012807D0054817F039FD0548EC
:101C5000210017F067FD10BD034817F031FDF6E7CE
:101C600074810210AC8102103C81021070B5050035
:101C70004178194817F056FD012405E02B195978D1
:101C8000164817F04FFD0134072CF7DD0A2017F036
:101C9000BFFC697A124817F045FD012405E02B19B5
:101CA000597A0E4817F03EFD0134072CF7DD0A2063
:101CB00017F0AEFC697C0B4817F034FD0124032CAF
:101CC00006DC2B19597C054817F02CFD0134F6E78A
:101CD000054817F0F5FC70BDC0810210D4810210D8
:101CE000DC810210F08102101085021070B5040032
:101CF00015000B78012B0DD0032B27D0002B1BD008
:101D00001A4817F0DDFC1A4817F0DAFC194817F0EA
:101D1000D7FC08E0154817F0D3FC174817F0D0FCA3
:101D2000144817F0CDFC154BA200D158144817F0F9
:101D3000F9FC0B2C14D070BD0C4817F0C1FC1148F5
:101D400017F0BEFC0B4817F0BBFCECE7074817F098
:101D5000B7FC0D4817F0B4FC064817F0B1FCE2E7F9
:101D60000A48290017F0DEFCE5E7C04604820210AD
:101D70000C830210708202103C820210D00C0020F2
:101D800040830210A4820210D882021054830210F1
:101D900070B5040015000B78052B2CD00DD8012B45
:101DA00017D0042B31D1204817F08AFC1F4817F0B8
:101DB00087FC1F4817F084FC14E0092B25D11A4832
:101DC00017F07EFC1B4817F07BFC194817F078FCD5
:101DD00008E0154817F074FC174817F071FC144818
:101DE00017F06EFC154BA200D158154817F09AFC5D
:101DF0000B2C14D070BD0C4817F062FC114817F082
:101E00005FFC0B4817F05CFCECE7074817F058FC48
:101E10000D4817F055FC064817F052FCE2E70B4856
:101E2000290017F07FFCE5E76C830210D8830210CD
:101E3000708202100C840210A4830210D00C0020C7
:101E400040830210408402107484021054830210F4
:101E500010B5040003681B78002B18D00523C35667
:101E6000002B00D010BD114817F02AFC104817F0C5
:101E700027FC2368D9690F4817F054FC0E4817F067
:101E80001FFC042161560D4817F04CFCEAE7074897
:101E900017F016FC0A4817F013FC2368D9690948A3
:101EA00017F040FC044817F00BFCDBE7A884021095
:101EB000DC840210E484021010850210FC840210FD
:101EC000148502101C85021010B58AB00400037836
:101ED000002B41D04B4817F0F3FB62784A4B92003D
:101EE000D1584A4817F01EFCE168494817F01AFC1F
:101EF0000A2017F08DFB00F039FD464B195C46486F
:101F000017F010FC0A2017F083FB217C434817F0E0
:101F100009FC637C002B2AD10A2017F079FB0A21E7
:101F200061563F4817F0FEFB01A81E2303700DF019
:101F3000D7FD002833D0182161563A4817F0F2FB3C
:101F400001A8232303700DF0CBFD041E31D00A201D
:101F500017F05EFB0AB010BD334817F0B1FB627892
:101F6000294B9200D158294817F0DCFBF2E72F48A3
:101F700017F0D8FB237A012B0DD1637A002B08D000
:101F80002B492C4817F0CEFB617C6069FFF738FEC7
:101F9000C2E72949F5E7294817F092FBF4E70299CF
:101FA000627E53009B189B00C958254817F0BAFB66
:101FB000C1E7244817F0B6FB00F0B2FD092811D89C
:101FC00001238340204A134208D0029B19881F48EE
:101FD00017F0A8FB0A2017F01BFBB8E7F43AFF3A0A
:101FE00013420BD11A4817F09DFBF3E7029B6200E6
:101FF000D15A164817F096FB0134E4B2042CF5D9F7
:10200000E8E7C04678850210900C0020408302105B
:10201000B0850210C8860210E4850210F88502100F
:102020003886021064860210408502100C86021069
:10203000348502101C860210388502102C8602108E
:102040005086021078860210F9020000888602107D
:1020500090860210F0B587B005000C006946284B49
:102060000A00C1CBC1C243CB43C22378002B33D07B
:10207000244817F025FB6278234B9200D15823485F
:1020800017F050FBE168224817F04CFB1023E35691
:102090009B006A4699581F4817F044FB29781E4850
:1020A00017F040FB6B78002B21D10A2017F0B0FA13
:1020B00008216156194817F035FB09216156184867
:1020C00017F030FB0A216156164817F02BFB0A2047
:1020D00017F09EFA07B0F0BD134817F0F1FA6278D6
:1020E000094B9200D158094817F01CFBF2E70F4842
:1020F00017F0E6FA69786868FFF782FDD5E7C04611
:102100000C8C021004870210900C002040830210F7
:102110003C870210708702108487021038860210F4
:10212000A8870210BC870210CC8602109887021084
:1021300010B504004378022B0BD0032B32D0012BB7
:1021400003D01A4817F0BCFA10BD194817F0B8FAB6
:10215000FAE74168174817F0E5FAA17D164817F02D
:10216000E1FA164817F0DEFA200017300621FFF7D3
:1021700047FD0A2017F04CFAE168114817F0D2FA2F
:10218000217C104817F0CEFA1223E15E0E4817F0BA
:10219000C9FA142161560D4817F0C4FA0A2017F045
:1021A00037FAD1E70A4817F08BFACDE7D08702104B
:1021B0000888021040880210688802107C8802108B
:1021C0008C88021038860210A8870210BC87021083
:1021D000A088021010B5034B195C034817F0A2FA4F
:1021E00010BDC046C8860210D8880210014B188066
:1021F0007047C0460057002030B58BB001AC332388
:10220000237020000DF06CFC029D3C4B1C88002CC0
:1022100002D120000BB030BD0DF0DEFB00286AD1EA
:10222000364B1B88012214001C401A421DD1334B2F
:102230001B889B0720D4314B1B885B0725D42F4B71
:102240001B881B072BD42D4B1B88DB0633D42B4B51
:102250001B889B063AD4294B1B885B0642D4274B2C
:1022600000221A800DF0AEFBD3E7002234212800B3
:1022700011F048FF0400DAE7280034303422182136
:1022800011F040FF2418A4B2D5E728004C30AC214F
:102290004C22490011F036FF2418A4B2CFE72800E1
:1022A000A530FF30D222D0215200490011F02AFF80
:1022B0002418A4B2C7E7D1239B00E818D1229200CA
:1022C000A42111F01FFF2418A4B2C0E7FA239B0039
:1022D000E818FA2294219200C90011F013FF241883
:1022E000A4B2B8E7064BE8181A00182111F00AFF4B
:1022F0002418A4B2B3E700248BE7C046005700209F
:102300008808000030B58BB001AC33232370200067
:102310000DF0E6FB029C0021342011F00FFF002895
:1023200002D100200BB030BD3421182011F006FF7F
:10233000002801D10020F5E7AC204C21400011F02D
:10234000FDFE002801D10020ECE7D221D020490079
:10235000400011F0F3FE002801D10020E2E7D12176
:102360008900A42011F0EAFE002801D10020D9E75D
:10237000FA2194208900C00011F0E0FE002801D16C
:102380000020CFE70949182011F0D8FE002801D11C
:102390000020C7E78A252D0100222900200011F026
:1023A000BFFEA842BED00020BCE7C046880800009F
:1023B00070B505000E0000240EE0032D0AD11B6A43
:1023C000002B07D03000984704E05B69002B01D058
:1023D00030009847013464B2032C17DC0C4BA20088
:1023E000D358002BF6D0022D0AD0E6D8002DECD021
:1023F000012DEFD19B69002BECD030009847E9E725
:10240000DB69002BE6D030009847E3E770BDC0469B
:10241000A026002010B504000C4801230370637847
:1024200043700223E3568372E368C3600323E356D9
:1024300003762369437623794372054B1B685B6AF5
:10244000984721000020FFF7B3FF10BD6C0D00205E
:102450009C26002030B587B001AC092323702000F2
:102460000EF040F80500084B1B68DB69059A210057
:102470009847059A054B1A60002D02D1002007B03D
:1024800030BD01204042FAE79C260020D0240020E5
:1024900030B587B001AC0B23237020000EF022F87A
:1024A0000500084B1B68DB69059A21009847059ACF
:1024B000054B1A60002D02D1002007B030BD01206D
:1024C0004042FAE79C260020D024002010B586B0B8
:1024D00001AB01221A70104A1268D2785A71002892
:1024E00012D002221A710D4B013A1A700C4B1B6864
:1024F000DC6901A80DF0F6FF059A01A9A047059A2D
:10250000084B1A6006B010BD01AB01221A71034BD3
:1025100000221A70EAE7C046B0260020300D0020E5
:102520009C260020D024002030B58BB003000A0088
:102530003C490A603C4908603C483D4901603D49CE
:1025400041603D4981603D49C1601C683C490C6067
:102550005C684C603B4C8C60DB68CB603A4B002481
:102560001C7012780DF058F8002852D1FFF7CAFEFF
:10257000011E04D02C4B1B681B690020984701AC3E
:102580000223237020000DF0ABFA61682F4D681C08
:10259000082202F032F80323237020000DF0A0FA85
:1025A000616828000930082202F027F8042323700C
:1025B00020000DF095FA616828001130042202F025
:1025C0001CF81D232370174D2B681B7923712000E5
:1025D0000DF078FB052323702B685B7823712000B6
:1025E0000DF070FB2B6858790EF082F90DF0EAF9C6
:1025F0000123237020000DF073FA00280CD12379F9
:10260000002B0CD1084B1B685B69104898470020D1
:1026100003E00120404200E000200BB030BD00206C
:10262000FBE7C046B02600209C260020EC260020B8
:102630001524001085290010412A00108127001060
:10264000DC260020ED21001006570020300D002070
:10265000014B18687047C046D024002010B5024BCB
:102660001878FFF733FF10BD300D002000B58BB098
:1026700001A8012303700DF033FA002805D101AB46
:102680001879002802D0012000E000200BB000BD26
:1026900070B50CF02DF8051E01D0280070BDFFF7B5
:1026A000E5FF012801D1002405E0FFF7D7FF013540
:1026B000F3E7013464B2032CEFDC054BA200D358DE
:1026C000002BF6D0DB6898470028F2D00500E4E73D
:1026D000A026002030B587B004000D00FFF7C6FF2C
:1026E000012831D1214B1D726B1E9D4101AB1D7024
:1026F0001F4A1268D27852B29A73607869460DF018
:1027000083F9002827D001AB00221A7003929A8126
:10271000164A1300103303CC03C3154B1B68DB7838
:102720005BB2937201A80DF0D9FF0400114B1B6836
:102730009B69059A01A99847059A0F4B1A60002CCE
:1027400011D1002007B030BD0C4B1878FFF7BEFE4A
:1027500001204042F6E7227801AB1A7162789A8133
:1027600062680392D4E701204042EBE76C0D002041
:10277000B02600209C260020D0240020300D002010
:1027800030B58BB00400334B00221A7042785A7077
:102790000D2A05D0304B1B689B6A2E4900209847B4
:1027A00021000320FFF704FE23780A2B2FD00E2BE5
:1027B0000FD0062B01D00BB030BD00236A46137139
:1027C00053710293254B1B68997801A8FFF782FF8C
:1027D000F1E700256B461D711D7201A80DF072FA1C
:1027E0001F4C012363706560A57520001730062219
:1027F000002101F01AFF184D2B68DB6A0020984772
:102800002B681B6B20009847FFF724FED3E7637803
:102810000D2B0FD0124803234370031D043426CC24
:1028200026C326CC26C322681A600B4B1B681B6B81
:102830009847C0E70A480B3B4370031D043426CC7D
:1028400026C326CC26C322681A60034B1B681B6B69
:102850009847B0E7580D00209C260020B0260020A5
:102860001422002030B589B003AC0C232370053B43
:1028700002001A4020790721884310432071C2B218
:102880001340237120000DF02DFE05000D4B1B6839
:10289000DB69079A21009847079A0B4B1A60002DB5
:1028A0000CD100236A46137153710293074B1B68C6
:1028B000997801A8FFF70EFF09B030BD0120404212
:1028C000FAE7C0469C260020D0240020B026002035
:1028D00010B58AB0040000236A46137101A80DF0F8
:1028E000FFF86B461B7AA34233D0012C17D0022C81
:1028F0001CD0002C03D0002420000AB010BD002BF7
:1029000001D10024F8E701A8002303710DF0DAF9E2
:10291000002820D1134B1B68DB6A9847ECE7FFF7D0
:1029200099FD0400104B01221A70E5E7002B0DD130
:10293000002401A8022303710DF0C4F900280DD171
:10294000084B1B68DB6A02309847D5E701246442D4
:10295000EFE70024D0E701246442CDE7012464427C
:10296000CAE7C0469C2600200657002000B58BB061
:1029700000236A46137101A80DF0B2F86B46187A6D
:102980000BB000BD10B584B00400234B01221A70B7
:1029900042785A70002A38D10423C3561E490B725C
:1029A0000E22835E4B721023C3568B724369CB6039
:1029B0001123C3560B74C3786A461372037B537298
:1029C00083680393154B1B689B6A02A89847237F73
:1029D000002B05D0114B1B685B6B00210120984731
:1029E00021000120FFF7E4FC6379012B0FD0236A5B
:1029F000002B0AD000236A46137053700193084BD2
:102A00001B6899786846FFF765FE04B010BDFFF7B4
:102A1000ADFF0028EED0EAE7580D00209C260020EC
:102A2000B026002000B58BB02C236A46137101A894
:102A30000DF056F86B46082018560BB000BD00008C
:102A400070B58AB004003148002303706378437086
:102A50002F4B1B685B6A984721000220FFF7A8FCF8
:102A600023780B2B3FD00AD8012B1ED0092B34D151
:102A7000284B1B78002B30D0FFF70AFD2DE00C2BE4
:102A80002BD16378002B3AD100246B461C710123B3
:102A90006A46137201A80DF015F91D4B1B68DB6A1D
:102AA000012098471B4B1C7017E001AD07232B70CA
:102AB00028000DF015F8184E3368029ADA61FFF716
:102AC000B1FF30716378002B09D1134B00225A718A
:102AD0000F4B1B681B6A104898470AB070BD0E4B1D
:102AE000FF225A71F4E76378002B05D10B4B1B686A
:102AF000187BFFF7B7FEF0E7FFF7ACFCEDE7074BFD
:102B00001B68187BFFF7AEFEE7E7C0466C0D0020A0
:102B10009C26002006570020500D0020B0260020E3
:102B2000014B1B6818787047B026002000B58BB0A9
:102B300001AB2F221A70029018000DF0C3F8002884
:102B400001D10BB000BD01204042FAE770B504008E
:102B50000D00022828D006D8002809D0012826D147
:102B600000F0C2FC06E0032821D101F073FA01E075
:102B700001F01CF800281AD00E4BA400E0500E4BB8
:102B80001B689A694262DA6982620C4AC2620C4A24
:102B900002635B6B436344680A4B1B689A799968CC
:102BA0002800A047002070BD01F0FCFCE2E70120F6
:102BB0004042F8E7A02600209C260020CD240010EB
:102BC00055240010B026002010B5054B8000C358D6
:102BD0009B68002B01D0984710BD0020FCE7C04641
:102BE000A026002070B5002401E0013464B2032C5B
:102BF00012DC0A4BA200D358002BF6D01B69002B25
:102C0000F3D0E0B2FFF7E0FF0028EED0034BA500C1
:102C1000EB581B699847E8E770BDC046A026002026
:102C200010B5094B1B6E002B00D098470CF0BAFC76
:102C3000FFF7E2FA011E04D0044B1B681B69012058
:102C40009847FFF7CFFF10BD78A702109C26002001
:102C500010B5030005480068002806D00468002C61
:102C600003D0514308001900A04710BDDC25002007
:102C700010B5030005480068002806D04468002C01
:102C800003D0514308001900A04710BDDC250020E7
:102C90000300C208885C07229A43104101231840B0
:102CA000704710B5072484430123A340DBB2A24040
:102CB000D2B2C0080C5C9C4312190A5410BD002209
:102CC000002107E0012393400340D340C918C9B253
:102CD0000132D2B21F2AF5D9012901D00020704754
:102CE0000120FCE730B5002304E0C45CCD5C6C40FF
:102CF000C45401339342F8DB30BDF8B5CE464746A5
:102D000080B5070089469046002510E0AEB2390034
:102D10003000FFF7BDFF040049463000FFF7B8FF61
:102D20004440E2B239003000FFF7BBFF01354545B2
:102D3000ECDBC0BCB946B046F8BD02004311401000
:102D400053409B058022D2031340C0187047F0B552
:102D5000C64600B504000D0090460800FFF7AFFF1F
:102D6000002809D00126E3001B191B011B1BDC00F6
:102D7000E41A0134002307E00026F4E74246D218A3
:102D8000002111700133DBB2EA109A42F6DA002713
:102D90000EE02000FFF7D1FF0400711915F0E8F9EB
:102DA000A942F6DA88B201224146FFF77AFF0137DD
:102DB0006B10BB4202DD80214902F1E780BCB846BE
:102DC000F0BD70B506000D00002401E00134A4B28E
:102DD000AC4206D231002000FFF75AFF0128F5D19E
:102DE00000E00024200070BD70B506000D00002436
:102DF00001E00134A4B2AC4207D231002000FFF759
:102E000047FF0128F5D1002000E0012070BD00003F
:102E100010B5124B42229B5A00E00133421E9A42E7
:102E20000FDD0E4A92889A42F7DD0C4A4024115B6E
:102E3000013189B211531C00083464001219518009
:102E4000EBE7064A92889A4203DD044B42229852ED
:102E500010BD0132014B42215A52F9E7DC25002016
:102E60000100002001E0013080B2084B9B888342C2
:102E700009D9064B0200083252009B185A884B1C95
:102E80009A42F0D100E000207047C046DC250020C7
:102E9000F8B5CE46474680B506000C1E90461CD0BD
:102EA0004A1E4A43521043464B439B1ADF10DA171F
:102EB000520F9B1807251D40AD1A002C12D000237D
:102EC0009946A1450ED2002231004846FFF7E9FE9F
:102ED0004B4601339BB29946F3E700250027ECE708
:102EE0000134A4B2444511D20A4BDB191A7B0723E3
:102EF0005B1B1A4101231A4031002000FFF7D1FE6D
:102F00000135082DECD101370025E9E7C0BCB946F1
:102F1000B046F8BDDC250020F0B5C64600B5070078
:102F20000C00160000292CD04A1E4A4352100B00F8
:102F300073439B1ADA109046DA17520F9B18072535
:102F40001D40AD1A04E00135082D15D00134A4B29E
:102F5000B4421AD239002000FFF79AFE0028F2D1BD
:102F60000B4A4244107B0721491B01238B40DB4362
:102F70005BB203401373E6E701239C46E04400255F
:102F8000E4E7002500239846E2E780BCB846F0BDA0
:102F9000DC25002070B582B005000E00244B1A60BD
:102FA00098809971002242215A5202395A529A60ED
:102FB000002308E01E4A1C00083464001219012195
:102FC000518001339BB2142BF4D90023002B01D084
:102FD00000230BE0164AD2183C3200211170013355
:102FE000F4E7134AD218FF2111730133042BF8D9E7
:102FF000002400E0013433006B43A3420FD90C4B93
:103000001B68002BF6D01A68002AF3D001A9094AE0
:1030100012780A701B68012220009847EAE7044BE7
:10302000002240215A5202315A5202B070BDC046AD
:10303000DC250020248C0210004870471A04000090
:10304000F0B5DE4657464E464546E0B591B0040021
:103050008946032200210FA801F0E7FA322200215D
:1030600002A801F0E2FA0122002101A801F0DDFA34
:1030700001220021684601F0D8FA914BDC874222F8
:103080009B5AA34200D914E18D4B9B88A34210D2D6
:103090008B4B40229B5A052B1DD9894B04320121B1
:1030A0009954002011B0F0BCBB46B246A946A046D8
:1030B000F0BD834DAA79611E89B24846FFF7C8FD6D
:1030C000E31D5B00ED1800236B802000FFF7A0FEDE
:1030D00001204042E6E72000FFF79AFE784B4022AD
:1030E000985A0028DED09988601A0FAAFFF72FFEA1
:1030F0000024002609E0013880B2012201A9FFF76F
:10310000D0FD002E00D1013601346D4B9B88A342C7
:103110001FDDA5B20FA92800FFF7BAFD0128F3D1E2
:10312000674B2200083252009B1858880028E2D1D1
:1031300000220FA92800FFF7B4FD614FBA792900DA
:1031400002A8FFF795FDBA7902A94846FFF7CAFD24
:10315000DAE75B4B4022995A01A8FFF732FE0500DF
:10316000002E2CDD56493C312800FFF791FD012847
:1031700028D1534C4026A25B29006846FFF788FE01
:10318000A25B694601A8FFF7B8FD2800FFF768FEBB
:103190000100A27902A8FFF76BFDA27902A94846B7
:1031A000FFF7A0FDA45B210001A8FFF71DFE00288A
:1031B00017D1210001A8FFF704FE0500D2E7012086
:1031C00040426FE70023002B0DD03D4B9A68402111
:1031D000585A824270D1012800D863E7831E98466E
:1031E0004FE00123EFE7364C4033E25A290001A8B3
:1031F000FFF792FE2800FFF733FE0100A279484650
:10320000FFF726FD21003C3101222800FFF749FD90
:10321000A3680133A360D8E7294C4023E25A01A9EF
:103220006846FFF76AFD3000FFF71AFE0100A27939
:103230004846FFF71DFDA279494602A8FFF752FD57
:10324000013DA84513DA1E4C4027E25B5146684613
:10325000FFF71EFEAEB2E25B310001A8FFF718FED9
:1032600069463000FFF714FD0128E9D1D4E7144B7B
:103270009A79594602A8FFF7EBFC01235B429C4672
:10328000E0444346002B10DB43469BB29A461800AD
:10329000FFF7E6FD83460A4CA279010002A8FFF77A
:1032A000E7FC4023E55A013DCBE7054B4022985A05
:1032B000F8E601204042F5E601204042F2E6C04631
:1032C000DC25002010B5040003493E31082216F029
:1032D00073F8200010BDC046DC250020002908D06E
:1032E000064B59609A7001221A70044B00225A70E2
:1032F0007047024B00221A70F7E7C046B426002040
:10330000014B18787047C046B4260020014B58780E
:103310007047C046B4260020F0B5C64600B582B05E
:103320000600C378CA2B00D0A1E0002500240CE0E1
:103330000C000AE0032B07D10234E4B2525C0723ED
:103340001340534A537300E00C00337BA34200D870
:103350008BE0B268611CC9B2135D022B5ED0E9D864
:10336000002B0AD0012BE3D1494B00205873337F47
:10337000002B12D00634E4B2E7E7454B5A68681CCC
:10338000C0B2531900241C70AB1CDBB201341454BE
:103390000335EDB2D4540C00D7E7A01CC0B2535C87
:1033A000E11CC9B2105C00021B18201DC0B2515CA8
:1033B00009045B18611DC9B2175C3F06DF190634AA
:1033C000E4B2515C324B1B7A1B071B0F0F220A40E1
:1033D0009A42BAD1002300936A469380684610F05F
:1033E0004BFF0098C0190090019910F029FF284860
:1033F000037A1A07120F01320F210A408B4313433D
:103400000372244B5B6B002B9FD07A1C00200D397C
:1034100091424041C0B23900984796E70234E4B285
:103420001B4B98465A686B1CDBB202215155AF1CEE
:10343000FFB20139D154684610F01EFF009B164AB6
:1034400094466344009342465268E91CC9B2D3557E
:103450001F0A281DC0B257541F0C691DC9B217544A
:103460001B0E0635EDB253546FE7002D03D102B0A9
:1034700080BCB846F0BDCA236A4613705570044B31
:103480005B68019300216846FFF724F9EFE7C04627
:10349000B4260020880D002080C22AED30B58BB004
:1034A000104B5B7A002B01D10BB030BD01AC052372
:1034B00023700C4DAB7A237120000CF003FC252304
:1034C0002370EB7A237120000CF0FCFB2C2323707B
:1034D0000C23EB56237120000CF0F4FB00236B72DD
:1034E000E2E7C046B426002000487047880D00205F
:1034F00030B58FB0FFF7CCF8002853D12B4B5B7A57
:10350000002B2AD00CA810F0B7FE0C9B284A94463A
:1035100063440C9325494A680120107053701C0ABB
:1035200094701C0CD4701B0E13710B7A1024A343DF
:103530000B72DBB25371CA236C46282564192370C1
:10354000C43B6C460135641923700B92487200210C
:103550000AA8FFF7BFF80FB030BD01AC05332370E8
:1035600020000CF0BDFA2379104DAB7200232371BB
:1035700020000CF0A7FB2523237020000CF0B0FAEC
:103580002379EB720123237120000CF09BFB2C2389
:10359000237020000CF0A4FA23792B73054B1B6BCE
:1035A0009847AFE701204042D5E7C046B426002047
:1035B00080C22AED880D002010B5074B5B7B002BE5
:1035C00000D110BDFFF794FF0028FAD1024A537BC7
:1035D000013B5373F5E7C046B4260020014B187831
:1035E0007047C04668240020014B58787047C04699
:1035F0006824002070B5504C206A642114F0E0FD6E
:103600000023A372E3680122A27240211970257D74
:10361000E168A37A5E1CA672CD54E168A37A5D1CB2
:10362000A572A57DCD54E38AE568A17A4E1CA672E9
:103630001B0A6B54E168A37A5D1CA572C854050A85
:10364000E168A37A5E1CA672CD54000CE168A37AEF
:103650005D1CA572C854E168A37A581CA07224208E
:10366000205CC8542623E05EE168A37A5D1CA57245
:10367000C8542621635EE068A17A4D1CA5721B1216
:1036800043542823E056E168A37A5D1CA572C85410
:10369000E168A37A581CA0722920205CC854E16814
:1036A000A37A581CA072207EC854A3691B0AE06844
:1036B000A17A4D1CA5724354E168A37A581CA072EC
:1036C000A07EC854E168A37A581CA072E07EC8545A
:1036D000E168A37A581CA0722A20205CC854E168D3
:1036E000A37A581CA0722B20205CC854E168A37AEE
:1036F000581CA0722C20205CC854E168A37A581C86
:10370000A0722D20205CC854E168A37A581CA072D6
:103710002E20205CC854E168A37A581CA0722F2088
:10372000205CC854E168A37A581CA0723020205C49
:10373000C854627070BDC0466824002010B5164B96
:103740001B78002B0CD003780A2B0AD00E2B07D144
:10375000114814302022002100F067FFFFF74AFFD4
:1037600010BD43780D2B0BD00B4B1833043016C80B
:1037700016C316C816C302681A60FFF73BFFEFE7CF
:10378000054B1B7D002B02D1034B01221A75024A07
:10379000D38A0133D382E7E76824002010B5037889
:1037A0000B2B00D010BD4378002B05D0074B002217
:1037B0001A75FFF71FFFF5E7044C20001430202294
:1037C000002100F032FF01232375F2E76824002076
:1037D00010B5002809D0002907D00E4B18600E4BF9
:1037E000D9605A7201221A7004E00A4B00221A6052
:1037F000094B1A70084C0023238220001430202229
:10380000002100F012FF0023637000223423E254F1
:1038100010BDC0466424002068240020F0B595B097
:10382000C04B1B78002B32D0C378002B02D1837C95
:10383000002B03D0BB4A138A01331382437B002B36
:1038400025D0C378E02B22D1B64B00229A72826831
:1038500013787F2B14D89B00B349CB589F46B14BAC
:10386000DA680121997200201070D8689A7A541C85
:103870009C7206248454D8689A7A541C9C72815491
:10388000A84B9B7A002B02D0A64B01225A7015B090
:10389000F0BDA44B342201219954F1E7A34BDB6A1C
:1038A00001209847ECE7002369460B7053780B71B1
:1038B00068460CF007FAE3E7052369460B70537876
:1038C0005A1E93410B7168460CF0FCF9D8E750780A
:1038D000431E9841C0B20DF00BF8D1E76846944BF7
:1038E000010070CB70C131CB31C131CB31C111CBB3
:1038F00011C15378152BC3D88E4A12685268002A1A
:10390000BED09B00694658589047B9E753785A1E75
:10391000D2B2012AB4D8013B5A1E9341D8B2814B8E
:103920001872844B1B689B689847A9E77D4BDA683F
:103930000121997208231370073B01240FE0D2B2D2
:103940009A429DD98268651C125D7649CE688C7A50
:10395000671C8F72013232550133DBB2ECB2714A0F
:10396000517A057B0A1CA942E9D92A1CE7E76D4B6D
:10397000DA680121997208311170188AD9689A7A27
:10398000541C9C7288541A8AD868997A4C1C9C7270
:10399000120A425474E7634B00221A8270E7042330
:1039A0006A461370614B9C6A68460CF09BFD049A52
:1039B0006946A04764E75D4B1B6B984760E750780A
:1039C000584B58755B4B1B68DB68984758E7554B5D
:1039D000DA680121997240311170D88AD9689A7ACF
:1039E000541C9C728854DA8AD868997A4C1C9C7250
:1039F000120A425444E74B4B0022DA8240E7037B31
:103A0000072B00D03CE7023B69460B705378917856
:103A100009020B4369468B80D378117909020B4365
:103A200052791204134364225343029383689B79AF
:103A30005BB26A4613733D4B9C6A68460CF052FDBC
:103A4000049A6946A0471BE743236A462C21521873
:103A5000137000236A460431521813700BA80CF03F
:103A600031F9304B34220121995409E735236A4654
:103A7000137068460CF034F80199029A294BDC68FF
:103A8000987A451C9D727F2525542A480068DD6878
:103A90009C7A661C9E72C6782E55DD689C7A661CE0
:103AA0009E7286782E55DD689C7A661C9E724678DA
:103AB0002E55DD689C7A661C9E7200782855DC685D
:103AC000987A451C9D720D0E2554DD689C7A601C09
:103AD00098720802000E2855DD689C7A601C987266
:103AE0000804000E2855DC68987A451C9D72215404
:103AF000D868997A4C1C9C72140E4454DC68987AED
:103B0000411C99721102090E2154DC68987A411CFB
:103B100099721104090E2154D868997A4C1C9C7230
:103B20004254ADE668240020288C0210C00D00200D
:103B3000288E02106424002030B583B01A4B5B78C5
:103B4000002B06D1184B34229B5C002B25D103B0EF
:103B500030BD10F03CFD0500134B5C68FEF778FDAE
:103B60002418A542EED9104C0023637010F02FFDED
:103B70006060A37A002BE5D0E02269460A704B70A2
:103B8000094BDA680192197A6846FEF7A3FD00280E
:103B9000D8D0054B01225A70D4E7034B0021995429
:103BA00010F057FDD3E7C046682400200048704756
:103BB000C00D0020014B18787047C046C826002071
:103BC000014B58787047C046C8260020F0B5DE4645
:103BD00057464E464546E0B58DB00600C378C92B22
:103BE00000D1A2E10DB0F0BCBB46B246A946A0464A
:103BF000F0BDB378012B00D160E1E14B5A68019C24
:103C0000611CC9B2131900201870A31CDBB2033069
:103C100050540334E1B201910121D1544EE10233F9
:103C2000DBB29B464D5D01242C406D08D5486B00EE
:103C30005B19DB0082469A4402A8FFF743FB50461B
:103C40000C30082202A915F0B7FB002C0AD100D0D5
:103C500067E1CC4B6A005219D2009B18DB89002B1C
:103C600000D160E1C64B5C6801994A1CD2B20123C5
:103C70006354C44968004319DB00CB189F89B846D8
:103C8000019F0237FFB2B9464746A754AA019246A0
:103C90009A89120A90463F2247463A40019F0337CD
:103CA000FFB2B84657463A434F46E255DA89914645
:103CB000019F3A1DD2B2944647464A46E2559B7C44
:103CC0009846019F0537FBB20193012342461340FA
:103CD0006246A3544019C300CB185B795B075B0FA6
:103CE00098465D4601239946E8E0B278012A00D162
:103CF000E4E09C1CE4B2485D04AA5070D81CC0B239
:103D00000C5D54801D1DEDB2085C0002044354801C
:103D1000581DC0B24D5DA94615719D1DEDB2085CE0
:103D200084465071D81DC0B24D5D95711D00083597
:103D3000EDB2AA46085C06901D000935EDB2574663
:103D4000CF5D3F02BA46504406900A27BA469A44CD
:103D50005746FFB24D5D2D04401906900B33DDB27E
:103D6000CB5D1B06C0180690382362461A40924667
:103D70006246134201D0373B9A46152C02D84B4677
:103D8000322B1FD9022352461A43D3B29A4604ABB0
:103D90005B789B069B0F9A01514611438B46524616
:103DA000120716D0764B5A680198431CDBB20221E9
:103DB000115407000237F9B201915946D15400233A
:103DC00099467BE0FFF738F94B4663438342DED9DF
:103DD000D8E704A901220A70023A0992694A5800F8
:103DE000C018C000131885C985C385C985C3664B33
:103DF0001A6849462000FFF7CDF8D3E7B278012AC8
:103E00005CD00233DBB2495D03220A405D485100B9
:103E10008918C900095C002912D104210A43D2B2D1
:103E200057494868019D691CC9B2032444552F00B5
:103E30000237FCB2019442541D00002399463DE034
:103E4000504851008918C90000240C54E8E79A1C16
:103E5000D2B2485D0333DDB28C5C24022043A40B54
:103E60008004800C474B62001219D2009B185B69DA
:103E70005A1C31D0002B19DB424B62001219D200C0
:103E80009B18022252425A613F4B1B68DA68002A93
:103E90000CD03C4B61000919C9005B18588819798E
:103EA00041439B79C91A022040429047354B62003A
:103EB0001219D2009B181B795D19EDB22B00327BD1
:103EC0009A4237D9B1685D1CEDB2CA5C082AF5D8B0
:103ED00092002E48825897464919FFF7B1F8294BAE
:103EE00062001219D2009A4692445346586102A8C1
:103EF000FFF7E8F950460C30082202A915F05CFAE9
:103F0000214B1B689B689A46002BCFD01D4863004D
:103F10001B19DB00C018C389027941888089D0470A
:103F2000C4E75D46CAE75D46C8E700239846994660
:103F30000193C4E70199002900D153E6104B5A6858
:103F40000AAB0B925970C9221A704B46002B11D044
:103F5000FA218900002000F045FB434604339840D5
:103F60000B4B18600B4B0AAA11CA11C3044B012258
:103F70009A7037E600210AA8FEF7ACFB32E6C0468D
:103F8000C826002024260020C4260020548E0210BB
:103F90009C380020C824002010B582B001A810F081
:103FA0004FFB0E4B9C7800229A7001A810F04DFB3D
:103FB000012C03D0022C0BD002B010BD084B1968A5
:103FC000084C200010F0F2FA200010F023FAF3E77A
:103FD00005480021FEF77EFBEEE7C046C82600201C
:103FE0009C38002084260020C824002010B500281A
:103FF00010D000290ED00C4B18600C4B5960DA70B1
:1040000001221A700A4B00221A600A490A4810F06D
:10401000F7F904E0044B00221A60044B1A70034BBA
:1040200000225A7010BDC046C4260020C8260020B9
:104030009C3800203D4000108426002010B5034825
:1040400010F06CFA024B02229A7010BD84260020F8
:10405000C826002000487047F80D0020014B187852
:104060007047C046D4260020014B58787047C046A0
:10407000D4260020F0B5DE4657464E464546E0B50C
:104080008DB00500C378C82B00D0B7E1002600240E
:1040900087E00C0085E0042B00D081E002AB073301
:1040A0009B4600235A461370A31CDBB2795C0320A5
:1040B00008408046E11CCAB29246FB5C9946E14B3F
:1040C000342141439C465B184A465A62AF68201D22
:1040D000C0B25246BF5C3F024F445F62AA6892463C
:1040E000621DD2B291465246105C0004C01958625B
:1040F000AA689246A71DFAB2009252464F46D25D78
:104100001206914648445862CF4A91464844586244
:10411000A868E21DD2B29146009A875C0F20384011
:104120001F0028373870A86827000837FFB24A46B2
:10413000825C9146DA62AA6820000930C0B2D75D7D
:104140003F024A463A439146DA62AA6827000A3794
:10415000FFB2105C00044A461043D8626422504308
:10416000D862A8680B34E4B2C05730331870B74B2C
:104170005B68771CFFB204209855283161440431F4
:104180005A4640460CF036F9002800D1F3E0AF4B18
:104190005B680236F6B202AA07321278DA5500E0FE
:1041A0000C002B7BA34200D826E1AF68611CC9B28A
:1041B0003B5D032B00D1C3E000D96CE7002B2BD073
:1041C000022B00D065E7A31CDBB27A5C90469D49C8
:1041D0003422404642435054A868E71CFFB2C35CF7
:1041E00089184B60AA68201DC0B2D25D12029B18CC
:1041F0004B60AF68621DD2B2385C00041B184B6084
:10420000A8680634E4B2825C1206994691444B4693
:104210004B60002247461CE08C4B5A68701CC0B2B1
:10422000931900241C70B31CDBB2023414540336FF
:10423000F6B20120D0540C00B3E7AB68601C1C5DE3
:10424000804B342179435B189B181C72013252B2A7
:10425000C4B20F2AF1DDB846AB68601CC0B2195D6C
:10426000784B34225743BA46019353449961AF685F
:10427000A21CD2B2385C000209189961A868E71C38
:10428000FFB2825C120452189A61A968201DC0B264
:10429000C95D0906511800919961AA68611DC9B2EA
:1042A000125CDA61AF68A01DC0B2795C09025218D5
:1042B000DA61AF68E11DC9B2385C00041218DA6136
:1042C000A8680834E4B2415C090693468B4458461A
:1042D000D86104AF20220021380015F067F80123CF
:1042E0003B7002227A70BB70019A53469B5C9B071D
:1042F0009B0FFB704B46059353460833944663442B
:104300000693009908915B46099338000BF0D6FF9D
:10431000002800D001204D4B5968721CD2B20223F4
:104320008B558000474B0093342743465F43009BE7
:10433000FB5C9B079B0F0236F6B203438B5430E7BE
:104340000234E4B27B5C03271F40404B5B68721C65
:10435000D2B2904603229A5538000CF019F8002882
:1043600002D004231F43FFB2384B5B680236F6B21B
:1043700042469F5415E704A80023049383800FF05E
:104380007BFF304B342241464A439B185A6A049BB8
:10439000D31A9846002B06DC02ABDA1DDB7910211C
:1043A0000B431370F3E65B0142469B1A9B004344A8
:1043B000DB009946264B49469A46180010F0F6F85D
:1043C000504610F027F82348494615F0ABF91F4B2B
:1043D0005A68B11CC9B25B461B78D355F31CDBB2DB
:1043E000404650540012311DC9B2D05443461B14EC
:1043F0000536F6B25354D4E6002E06D10DB0F0BC0B
:10440000BB46B246A946A046F0BDC82302AA137215
:1044100056720E4B5B680593002104A8FEF75AF90B
:10442000084C21788907890F0B4815F07BF96168E2
:104430000A4815F077F9217A094815F073F9012433
:1044400017E0C046182C0020803DD512D42600204D
:1044500068380020788E0210948E0210A88E021008
:10446000C08E0210134B1B19197A134815F05AF914
:1044700001340F2CF6DD0A2015F0CAF80D4CA169A5
:104480000E4815F04FF9E1690D4815F04BF9616AD6
:104490000C4815F047F92823E15C0B4815F042F968
:1044A000E16A0A4815F03EF93023E156084815F054
:1044B00039F9A3E7182C0020D4810210D48E021001
:1044C000E88E0210FC8E0210108F0210248F021052
:1044D000388F021010B582B001A810F0B1F8114B5E
:1044E0009C7800229A7001A810F0AFF8012C03D03C
:1044F000022C12D002B010BD0220FEF7E9F90A4BDF
:1045000028229B5CFA2189009940084C200010F079
:104510004DF820000FF07EFFECE70020FEF7D8F901
:10452000E8E7C046D4260020182C00208038002060
:1045300010B5002910D00A4B5960DA7001221A70A8
:10454000084909480FF05CFF084909480FF058FF77
:10455000034B00225A7010BD014B00221A70F7E77E
:10456000D42600208D4500106838002075450010C5
:104570008038002010B503480FF0D0FF024B022214
:104580009A7010BD80380020D426002010B5034852
:104590000FF0C4FF024B01229A7010BD6838002052
:1045A000D426002000487047300E002010B5064B7E
:1045B0001A6806485043064A944660441860054904
:1045C00013F0FEFD080010BD680E00206D4EC641C0
:1045D00039300000FFFFFF7F014B18607047C04675
:1045E000680E002070B505000C00FFF7DFFF611BAF
:1045F000013113F0BDFD481970BD04E00A78027066
:104600001A0001310130531E9BB2002AF6D17047C7
:10461000531EC01804E00A7802701A0001310138F4
:10462000531E9BB2002AF6D1704702E001701A00B7
:104630000130531E9BB2002AF8D1704770B5061E98
:1046400018D00025012040420CE04408012210400F
:104650004042094A1040604001339BB2072BF4D915
:104660000135ADB28D4203D2735D58400023F5E7AA
:10467000C04370BD0020FCE72083B8ED012040421C
:104680007047000070B5002914D000260CE04508E2
:10469000012303405B420848184068400134A4B23B
:1046A000072CF4D90136B6B2964204D28B5D58403D
:1046B0000024F5E7002070BD2083B8EDC0437047AB
:1046C000092801D8012070470020FCE700B583B01D
:1046D0000300080000220092092B2DD89B00184AE5
:1046E000D3589F4600F074FB0190019803B000BDC1
:1046F00001F046F90190F8E702F098F80190F4E72C
:1047000003F04AF80190F0E704F0D4F90190ECE7E7
:1047100004F0B0FF0190E8E706F026FB0190E4E723
:1047200005F06CFD0190E0E707F058FE0190DCE732
:1047300007F0A0F80190D8E7009B0193D5E7C046A9
:10474000508F021010B503000800092B05D89B00FC
:10475000104AD3589F4600F005FC10BD01F0EEF959
:10476000FBE702F071F9F8E703F0C0F8F5E704F0B1
:1047700049FAF2E705F026F8EFE706F09BFBECE7D5
:1047800005F0E4FDE9E707F0E3FEE6E707F01CF9D2
:10479000E3E7C046788F021010B503000800092B2C
:1047A00005D89B00104AD3589F4600F0F9FB10BD76
:1047B00001F0E2F9FBE702F065F9F8E703F0B4F87D
:1047C000F5E704F03DFAF2E705F01AF8EFE706F036
:1047D0008FFBECE705F0D8FDE9E707F0D7FEE6E749
:1047E00007F010F9E3E7C046A08F021010B50300F0
:1047F00008001100092B21D89B00114AD3589F466D
:1048000000F026FC10BD01F06BFAFBE702F0C0F9E6
:10481000F8E703F0E9F8F5E704F072FAF2E705F0DB
:1048200059F8EFE706F0C4FBECE705F00DFEE9E709
:1048300007F060FFE6E707F03DF9E3E70020E1E776
:10484000C88F021010B503000800092B05D89B0083
:10485000104AD3589F4600F0CDFF10BD01F08EFAEC
:10486000FBE702F0C9F9F8E703F07AFCF5E704F09A
:1048700003FEF2E705F004FCEFE706F03DFFECE78E
:1048800006F0B0F9E9E707F06DFFE6E707F0CCFCCA
:10489000E3E7C046F08F021010B503000800092BB3
:1048A00021D89B00114AD3589F4600F023FC10BD2D
:1048B00001F0A0FAFBE702F0EDF9F8E703F0CEF81B
:1048C000F5E704F057FAF2E705F044F8EFE706F0F1
:1048D000A7FBECE705F0F8FDE9E707F07FFFE6E767
:1048E00007F022F9E3E70020E1E7C0461890021044
:1048F00010B50400080011001A00092C06D8A40005
:10490000154B1B599F46029B00F018FC10BD029BE3
:1049100001F0B6FAFAE7029B02F0F6F9F6E7029B1D
:1049200003F0C0F8F2E7029B04F048FAEEE7029BBE
:1049300005F034F8EAE7029B06F096FBE6E7029BF7
:1049400005F0E6FDE2E7029B07F096FFDEE7029B3B
:1049500007F00EF9DAE7C0464090021010B50300E8
:1049600008001100092B21D89B00114AD3589F46FB
:1049700000F01CFC10BD01F0B3FAFBE702F0F4F903
:10498000F8E703F0C7F8F5E704F050FAF2E705F0AE
:104990003DF8EFE706F098FBECE705F0F1FDE9E7FD
:1049A00007F09AFFE6E707F01BF9E3E70020E1E7ED
:1049B0006890021010B50400080011001A00092CBC
:1049C00021D8A400114B1B599F4600F06BFC10BD71
:1049D00001F0D6FAFBE702F031FAF8E703F016F936
:1049E000F5E704F09FFAF2E705F08CF8EFE706F040
:1049F000C1FBECE705F040FEE9E707F0BDFFE6E7A5
:104A000007F06AF9E3E70020E1E7C0469090021062
:104A100010B582B00400080011001A00092C40D81B
:104A2000A400214B1B599F46059B0093049B00F05B
:104A3000C9FC02B010BD059B0093049B01F010FB64
:104A4000F7E7059B0093049B02F088FAF1E7059BCA
:104A50000093049B03F06AF9EBE7059B0093049B2A
:104A600004F0F0FAE5E7059B0093049B05F0DAF803
:104A7000DFE7059B0093049B06F0FEFBD9E7059B4F
:104A80000093049B05F088FED3E7059B0093049BED
:104A900007F0E8FFCDE7059B0093049B07F0ACF916
:104AA000C7E70020C5E7C046B890021010B5030064
:104AB0000800092B21D89B00114AD3589F4600F0CB
:104AC00049FD10BD01F010FCFBE702F019FBF8E70F
:104AD00003F0F4F9F5E704F07DFBF2E705F06AF97D
:104AE000EFE706F091FCECE705F026FFE9E708F0B8
:104AF000FDF8E6E707F04CFAE3E70020E1E7C046FF
:104B0000E090021010B503000800092B21D89B008B
:104B1000114AD3589F4600F0ACFE10BD01F00CFCCA
:104B2000FBE702F00DFBF8E703F059FBF5E704F0B3
:104B3000E2FCF2E705F0E3FAEFE706F01CFEECE733
:104B400006F08FF8E9E708F0FFF8E6E707F0ABFBBF
:104B5000E3E70020E1E7C0460891021010B503002A
:104B60000800092B21D89B00114AD3589F4600F01A
:104B700011FD10BD01F0E3FBFBE702F0E4FAF8E7FA
:104B800003F0BCF9F5E704F045FBF2E705F038F96E
:104B9000EFE706F059FCECE705F0F2FEE9E708F074
:104BA000D6F8E6E707F014FAE3E70020E1E7C046AD
:104BB0003091021010B503000800092B21D89B008A
:104BC000114AD3589F4600F0E7FC10BD01F0B9FB35
:104BD000FBE702F0BBFAF8E703F094F9F5E704F01D
:104BE0001DFBF2E705F010F9EFE706F031FCECE70A
:104BF00005F0CAFEE9E708F0ADF8E6E707F0ECF9E2
:104C0000E3E70020E1E7C0465891021010B5030029
:104C100008001100092B21D89B00114AD3589F4648
:104C200000F0DCFC10BD01F08FFBFBE702F091FA15
:104C3000F8E703F089F9F5E704F012FBF2E705F075
:104C40000BF9EFE706F026FCECE705F0BFFEE9E71D
:104C500008F084F8E6E707F0E1F9E3E70020E1E790
:104C60008091021010B50400080011001A00092CF0
:104C70002BD8A400164B1B599F46029B00F0B0FC9A
:104C800010BD029B01F080FBFAE7029B02F062FA82
:104C9000F6E7029B03F05AF9F2E7029B04F0E2FA0E
:104CA000EEE7029B05F0DAF8EAE7029B06F0F4FB78
:104CB000E6E7029B05F08CFEE2E7029B08F06EF847
:104CC000DEE7029B07F0ACF9DAE70920D8E7C04637
:104CD000A891021010B50400080011001A00092C58
:104CE00021D8A400114B1B599F4600F0EDFD10BDCB
:104CF00001F000FCFBE702F0DDFAF8E703F09AFAB6
:104D0000F5E704F023FCF2E705F024FAEFE706F0FC
:104D10005DFDECE705F0D0FFE9E708F0F5F8E6E720
:104D200007F0ECFAE3E7C8B2E1E7C046D091021021
:104D3000004870470100010210B50400064B1B6AD1
:104D40009847002805D0054B9C466444044B9C4280
:104D500000D810BD0020FCE778A70210403576C9C6
:104D6000405DC60070B584B005000C00154B1E56A2
:104D7000154903F041FE0100072D0FD0134B5D6A6A
:104D800001230393E4B202940023019308330093B8
:104D9000073B32000120A84704B070BD0B4B5D6A91
:104DA0007201921B92009219D20001230393E4B284
:104DB0000294002301930533009300230020A847A9
:104DC000EAE7C0463C9302101C93021078A7021039
:104DD00000B587B0002304930378372B11D89B00CC
:104DE000524AD3589F46C378002B0AD0022304931B
:104DF00007E08378002B04D00223049301E0022310
:104E000004930498059007B000BD0122825601ABBF
:104E10001A7007225A708378002B00D002236A464A
:104E200093711023D371424B1B689022D2009A18C1
:104E30000292039301A803F0BAFD0490E1E7402336
:104E40000493DEE720230493DBE78378002B05D16E
:104E50000123C356374AD35C0493D2E70123C356D8
:104E6000354AD35C0493CCE7344B0493C9E7FA2367
:104E70009B000493C5E7FA23DB000493C1E7304BA2
:104E80000493BEE72F4B0493BBE7FA2189002E4819
:104E9000FFF7A8FBFA23DB009C4660440490B0E7D0
:104EA0002A4B0493ADE702230493AAE7204B1B6827
:104EB0009022D200944663440493A2E71C4B1B68E3
:104EC000234A9446634404939BE71023049398E792
:104ED000174B1B68049394E70123049391E7832302
:104EE000DB0504938DE71B4B04938AE71A4B04936D
:104EF00087E704AB11221A70103A5A7081E7032336
:104F000004937EE7144B04937BE70323049378E731
:104F10000123C356114AD35C049372E7407840B230
:104F20000F4903F069FD04906BE7C046F891021049
:104F3000B8350020C4930210CC930210B80B0000C7
:104F4000881300007017000018FCFFFF00EA063706
:104F50008C0400009A99094040F709373C930210ED
:104F60001C93021030B583B003000B4A10680B4A43
:104F700011681C786200121992008A18557A5A78C2
:104F800099686C006419E40000191C690094DB68DE
:104F900003F0C1FA03B030BD90350020B8350020D1
:104FA00070B586B064236A46138000239370019322
:104FB0000293039304931375037A012B27D0022BDA
:104FC00034D0002B01D006B070BD0368002BFAD09E
:104FD0004268002AF7D01A490B601A4C2260182246
:104FE00069461800FFF709FB2168174B0A0031CB0F
:104FF00031C270CB70C2154B0322CA520C3BC81889
:10500000124B9C466144023A03F076FADBE70D4B03
:10501000196800234B600B619023DB00C8180B4B11
:105020009C466144012203F067FACCE7054B1B68FC
:10503000064A9A5A9021C900585A02435A52C2E766
:1050400090350020B8350020049302108C04000035
:1050500010B50A2949D88900254B5B589F4600683E
:10506000FFF76AFE42E08378002B09D1007840B256
:105070000722002103F0C4F9431E9841C0B235E075
:10508000007840B20722022103F0BAF9431E98418A
:10509000C0B22BE0007840B20522002103F0B0F945
:1050A000431E9841C0B221E04378002B09D100781B
:1050B00040B20722002103F0A3F9431E9841C0B279
:1050C00014E0007840B20722022103F099F9431E50
:1050D0009841C0B20AE0007840B20722002103F0F4
:1050E0008FF9431E9841C0B200E0002010BDC046B9
:1050F000D892021010B503000279002A03D0012AC9
:105100000DD0002010BD0B4A10689022D2009446AA
:1051100060441968012203F0EFF90120F2E7054A23
:105120001068054A944660441968012203F0E4F9C6
:105130000120E7E7B83500208C040000F0B583B00B
:105140000E0017001C00031C072800DD072358B2BF
:105150006370134903F050FCA0700123E356072B42
:1051600017D0104AD05C0E4A9B00995803F0FEFA03
:1051700005000D4BDB6D9847030022000C320192B5
:10518000083400943A003100280003F001FB03B01A
:10519000F0BD044AD05C03F0F3FA0500E9E7C0462D
:1051A0001C9302103C93021078A70210F0B5CE4673
:1051B000474680B58DB004000B910127C75746685C
:1051C000324B5B689847051E5ED1A37C002B0DD146
:1051D0002F4B1A6821784B005818800080585B18B4
:1051E0009B00D2185668002E00D10600294BDB57D1
:1051F0009946264BDB6830009847072F26D0234B73
:105200009D69A178637C0993012308930023079388
:105210000693059304930393228902920822019234
:10522000009301334A460120A8470125174B5B6DC7
:10523000194AD15D0D31C9B2280098470B9B1F70E8
:1052400001200DB0C0BCB946B046F0BD0F4B9B6904
:1052500098464B465A01D21A92004A44D200637CC7
:105260000993002308930793069301210591049362
:1052700003932389029305230193084B0093002392
:1052800007490020C047D1E70020DAE778A70210DD
:10529000B83500203C930210C493021085450100EC
:1052A00050C30000F0B5DE4657464E464546E0B5D1
:1052B0008BB004008B4690460123C3563B4AD75619
:1052C0003B4B1A683B4D2968007843001B189B0034
:1052D000CB18597A4B005B18DB00D31802215956C2
:1052E0000220205603F082FB06000120205632499E
:1052F00003F082FB8246A2686168300003F086FA00
:1053000081462E4BDB68296822785500AD18AD0028
:10531000685898470123E356072B2BD0274BDD69AC
:10532000FA231B0108930023079306930593012298
:10533000049203930833029301920097534600228C
:1053400049460120A8470125A18901202056FFF7E1
:1053500009FD43461860194B5B6D217B2800984777
:105360005B461E7001200BB0F0BCBB46B246A9469E
:10537000A046F0BD114BDD697B01DB1B9B00DB19F7
:10538000DB00FA221201089200220792069205928F
:10539000012104910392043102910192009353463A
:1053A000074A49460020A8470025CDE73C93021054
:1053B00090350020B83500201C93021078A7021009
:1053C000A8610000F0B5D6464F464646C0B58EB03F
:1053D00006008A4691469846062200210CA813F042
:1053E000E5FF2E236B4400221A80002507272BE0BF
:1053F0000024072710E0564B196863001B199B0017
:105400005B58002B06D00120A0402E2169440B8858
:1054100003430B800134E4B20F2C15D8062AEAD0DE
:105420002E236B441B882341DB07F3D5484B1968B7
:1054300063001B199B005B58002BEBD101339F438A
:10544000E8E7062700E00627337AAB421AD97068EE
:1054500040190CA903F00AF9002813D02D18EDB259
:105460000CAB99882E226A441180DA78002A01D187
:105470000029E6D0531EDBB2042BE4D9062AB7D9A3
:105480000627E1E702236A46282152181370737A2F
:105490006A460231521813700AA8FFF799FC0200FD
:1054A000099001A80771B37A43710CAB01215956D9
:1054B000817102215956C171197801720B217156FF
:1054C00041720C21715681720D217156C1721021E9
:1054D00001731E31694401610275072242751C493E
:1054E0000968816102770022427732680192322294
:1054F0006A443121694403F0D8F80400072814D025
:105500000CAB01229A5651460A7002229A5649461D
:105510000A701B7842461370169B1D7020000EB057
:10552000E0BCBA46B146A846F0BD094E30689023AB
:10553000DB009C4660440C220021FFF776F83268BD
:105540002E236B4419889023DB00D152D8E7C04644
:10555000B835002070B504004068FFF7EDFB002867
:1055600016D00725002020560722002102F048FF10
:10557000002801D102239D4301202056072200214B
:1055800002F03EFF002801D104239D43280070BD96
:105590000625E7E70020704710B504004068FFF7D4
:1055A000CBFB00280FD003230B4A106821784A0058
:1055B000521892001258002A01D102329343032B51
:1055C00003D058B210BD0223EEE764684A005218B7
:1055D000920080184460F4E7B8350020022070473C
:1055E000F0B5C64600B598B0040003911700984680
:1055F0000023572202A98C4662441370562262444B
:10560000137013930C22002114A813F0CFFE0A2369
:1056100002AA9446634403221A80374B18689023E9
:10562000DB009C466044023A002102F04EFF002855
:1056300007D1314B19689022D2008B5A03200343C3
:105640008B52637A05AD2B70237A6B702A4B1B68E3
:105650009022D2009A1806920793284B1B68089351
:1056600010232B82063B02AA944663440A932368C4
:105670000BAE0B9363680C93A37A3372012373729E
:105680000EA821000C310CC90CC0237D3375E18AB2
:1056900008202056FFF766FB1190129501975623BC
:1056A00002AA9446634400935723634413AA4146D5
:1056B000300003F02DF90400031E06D00C2812D090
:1056C000200018B080BCB846F0BD573302AA9446FB
:1056D0006344197801390020FEF784FF13AB1B5C8B
:1056E000039A1370ECE7044B19689022D2008B5A8E
:1056F000032003438B52E3E7B835002090350020A8
:10570000F8B504000579012D4DD90F2D4DD803684A
:10571000187A000140B200110722002102F070FE49
:1057200000283CD0002623680820185600110722C4
:10573000002102F065FE002800D1012621680B7AC5
:105740001A0152B212115BB21B119A4200DD0126FE
:105750000868FFF7F1FA002823D00023002E01D0BB
:10576000002B24D1002E24D1002B24D1134F3868D4
:105770006E0073199B00C01821680C22FEF73DFFD4
:105780003B687619B6009E19002272720121A94069
:105790009020C0001A5A0A431A52002006E001263F
:1057A000C1E70123DAE7062000E00320F8BD062068
:1057B000FCE70520FAE70420F8E7C046B8350020EA
:1057C00070B50478012C11D9094B1D6860000019CF
:1057D000800028180C22002113F0E8FD9023DB0044
:1057E000E8181022210002F059FE70BD0020FCE7ED
:1057F000B835002070B586B0060003AB50221A728F
:10580000037A102B33D14368DD7B002D2FD1022486
:105810001AE07268535D03935219517809020B43E1
:105820000393927812041343039364225343039324
:105830000023049311E06B461C706846FFF7C0FF1D
:105840000335EDB20134E4B20F2C10D8062CE0D9A8
:1058500003AA0023039313720493039B002BEAD043
:1058600001A803AB01930471FFF74AFFE8E706B014
:1058700070BD00B585B0030002681168002908D129
:10588000037901A80370FFF79BFF002812D00320C3
:105890000DE002A802921B790371FFF731FF052882
:1058A0000AD00BD800280BD004280BD1023840B204
:1058B00005B000BD0020FAE70120F8E70020F6E778
:1058C0000320F4E70020F2E7002805D1054BC900CA
:1058D0005B189856C0B27047034BC9005B189856C6
:1058E000F8E7C046449302108493021070B5040098
:1058F0000D4B1B6A9847051E12D00C4BE0180C4B41
:1059000098420CD80B4912F05BFC00290AD10A4BD3
:105910009C466444094B9C4202D9002500E00025C6
:10592000280070BD0025FBE778A70210608FF7C83C
:1059300040164000C0270900002873C9C042C000BB
:1059400070B584B00C000B4B1E560B4903F054F895
:1059500001000A4B5D6A01230393E4B20294002321
:10596000019308330093073B32000120A84704B09D
:1059700070BDC04620950210B494021078A70210A2
:1059800000B587B0002304930378372B14D89B000D
:105990005B4AD3589F46C378002B02D10833049347
:1059A0000AE00223049307E08378002B04D002234B
:1059B000049301E0022304930498059007B000BD0E
:1059C0000122825601AB1A700D225A708378002B87
:1059D00000D002236A4693714823D371494B1B6858
:1059E0009022D2009A180292039301A802F0DFFFDE
:1059F0000490E1E740230493DEE720230493DBE7F0
:105A00008378002B05D10123C3563F4AD35C04930E
:105A1000D2E70123C3563D4AD35C0493CCE73C4B09
:105A20000493C9E7FA239B000493C5E7FA23DB003C
:105A30000493C1E7374B0493BEE7374B0493BBE7AE
:105A4000FA2189003548FEF7CDFDFA23DB009C469C
:105A500060440490B0E7324B0493ADE7082304930D
:105A6000AAE7284B1B689022D20094466344049313
:105A7000A2E7244B1B682B4A9446634404939BE79C
:105A80004823049398E71F4B1B68049394E7012372
:105A9000049391E7244B04938EE7244B04938BE704
:105AA0000079234A1E4900F0B6FD049084E704AB58
:105AB00017221A70133A5A70013A9A707CE7082339
:105AC000049379E70823049376E70079184A144988
:105AD00000F0A1FD04906FE7082304936CE708230E
